{
  "address": "0x03b795209750Ac00CA176022157e08A4254Da78c",
  "abi": [
    {
      "inputs": [],
      "stateMutability": "nonpayable",
      "type": "constructor"
    },
    {
      "inputs": [],
      "name": "AssetScooper_PairDoesNotExist",
      "type": "error"
    },
    {
      "inputs": [],
      "name": "AssetScooper__AddressZero",
      "type": "error"
    },
    {
      "inputs": [],
      "name": "AssetScooper__InsufficientBalance",
      "type": "error"
    },
    {
      "inputs": [],
      "name": "AssetScooper__InsufficientLiquidity",
      "type": "error"
    },
    {
      "inputs": [],
      "name": "AssetScooper__InsufficientOutputAmount",
      "type": "error"
    },
    {
      "inputs": [],
      "name": "AssetScooper__MisMatchLength",
      "type": "error"
    },
    {
      "inputs": [],
      "name": "AssetScooper__MisMatchToken",
      "type": "error"
    },
    {
      "inputs": [],
      "name": "AssetScooper__UnsuccessfulBalanceCall",
      "type": "error"
    },
    {
      "inputs": [],
      "name": "AssetScooper__UnsuccessfulDecimalCall",
      "type": "error"
    },
    {
      "inputs": [],
      "name": "AssetScooper__UnsuccessfulSwapTx",
      "type": "error"
    },
    {
      "inputs": [],
      "name": "AssetScooper__UnsupportedToken",
      "type": "error"
    },
    {
      "inputs": [],
      "name": "AssetScooper__ZeroLengthArray",
      "type": "error"
    },
    {
      "inputs": [],
      "name": "Reentrancy",
      "type": "error"
    },
    {
      "anonymous": false,
      "inputs": [
        {
          "indexed": true,
          "internalType": "address",
          "name": "user",
          "type": "address"
        },
        {
          "indexed": true,
          "internalType": "address",
          "name": "tokenA",
          "type": "address"
        },
        {
          "indexed": false,
          "internalType": "uint256",
          "name": "amountIn",
          "type": "uint256"
        },
        {
          "indexed": false,
          "internalType": "uint256",
          "name": "amountOut",
          "type": "uint256"
        }
      ],
      "name": "TokenSwapped",
      "type": "event"
    },
    {
      "inputs": [],
      "name": "owner",
      "outputs": [
        {
          "internalType": "address",
          "name": "",
          "type": "address"
        }
      ],
      "stateMutability": "view",
      "type": "function"
    },
    {
      "inputs": [
        {
          "internalType": "address[]",
          "name": "tokenAddress",
          "type": "address[]"
        },
        {
          "internalType": "uint256[]",
          "name": "minAmountOut",
          "type": "uint256[]"
        }
      ],
      "name": "sweepTokens",
      "outputs": [],
      "stateMutability": "nonpayable",
      "type": "function"
    },
    {
      "inputs": [],
      "name": "version",
      "outputs": [
        {
          "internalType": "string",
          "name": "",
          "type": "string"
        }
      ],
      "stateMutability": "pure",
      "type": "function"
    }
  ],
  "transactionHash": "0x48976bed28f6b8f2c09f2d022b5a068831d0901e6a274a9832168d44f8d4864f",
  "args": [],
  "numDeployments": 2,
  "solcInputHash": "dfad042e3d9832fd9285e0353d27ff7d",
  "bytecode": "0x60a060405234801561001057600080fd5b503373ffffffffffffffffffffffffffffffffffffffff1660808173ffffffffffffffffffffffffffffffffffffffff1681525050608051612351610060600039600061025901526123516000f3fe608060405234801561001057600080fd5b50600436106100415760003560e01c80630466ee071461004657806354fd4d50146100625780638da5cb5b14610080575b600080fd5b610060600480360381019061005b9190611457565b61009e565b005b61006a610218565b6040516100779190611568565b60405180910390f35b610088610255565b60405161009591906115cb565b60405180910390f35b3068929eee149b4bd2126854036100bd5763ab143c066000526004601cfd5b3068929eee149b4bd212685560008484905003610106576040517f561c30c400000000000000000000000000000000000000000000000000000000815260040160405180910390fd5b818190508484905014610145576040517feb0899cc00000000000000000000000000000000000000000000000000000000815260040160405180910390fd5b600080600090505b858590508110156101fa5760006101b4738909dc15e40173ff4699343b6eb8132c65e18ec6888885818110610185576101846115e6565b5b905060200201602081019061019a9190611641565b73420000000000000000000000000000000000000661027d565b90506101d9818686858181106101cd576101cc6115e6565b5b905060200201356102ef565b836101e491906116a7565b92505080806101f2906116db565b91505061014d565b5061020533826108dd565b503868929eee149b4bd212685550505050565b60606040518060400160405280600581526020017f312e302e30000000000000000000000000000000000000000000000000000000815250905090565b60007f0000000000000000000000000000000000000000000000000000000000000000905090565b600080600061028c85856109dd565b915091508582826040516020016102a492919061176b565b604051602081830303815290604052805190602001206040516020016102cb929190611865565b6040516020818303038152906040528051906020012060001c925050509392505050565b60003068929eee149b4bd2126854036103105763ab143c066000526004601cfd5b3068929eee149b4bd2126855600083905060008173ffffffffffffffffffffffffffffffffffffffff16630dfe16816040518163ffffffff1660e01b8152600401602060405180830381865afa15801561036e573d6000803e3d6000fd5b505050506040513d601f19601f8201168201806040525081019061039291906118bc565b905060008273ffffffffffffffffffffffffffffffffffffffff1663d21220a76040518163ffffffff1660e01b8152600401602060405180830381865afa1580156103e1573d6000803e3d6000fd5b505050506040513d601f19601f8201168201806040525081019061040591906118bc565b9050600073ffffffffffffffffffffffffffffffffffffffff168273ffffffffffffffffffffffffffffffffffffffff1614801561046f5750600073ffffffffffffffffffffffffffffffffffffffff168173ffffffffffffffffffffffffffffffffffffffff16145b156104a6576040517f74b44dbd00000000000000000000000000000000000000000000000000000000815260040160405180910390fd5b73420000000000000000000000000000000000000673ffffffffffffffffffffffffffffffffffffffff168273ffffffffffffffffffffffffffffffffffffffff1614801561052057508173ffffffffffffffffffffffffffffffffffffffff168173ffffffffffffffffffffffffffffffffffffffff16145b15610557576040517fd570b00d00000000000000000000000000000000000000000000000000000000815260040160405180910390fd5b61056082610b09565b610596576040517f7ad337de00000000000000000000000000000000000000000000000000000000815260040160405180910390fd5b61060e8373ffffffffffffffffffffffffffffffffffffffff1663c45a01556040518163ffffffff1660e01b8152600401602060405180830381865afa1580156105e4573d6000803e3d6000fd5b505050506040513d601f19601f8201168201806040525081019061060891906118bc565b83610c60565b610644576040517f1c074cc800000000000000000000000000000000000000000000000000000000815260040160405180910390fd5b60006106508333610cbe565b9050600081101561068d576040517f26c67e3c00000000000000000000000000000000000000000000000000000000815260040160405180910390fd5b60006106998483610e0f565b90506000806107178773ffffffffffffffffffffffffffffffffffffffff1663c45a01556040518163ffffffff1660e01b8152600401602060405180830381865afa1580156106ec573d6000803e3d6000fd5b505050506040513d601f19601f8201168201806040525081019061071091906118bc565b8787610f8a565b915091506000610727878c610cbe565b90506000610735878d610cbe565b90508181111561074d5761074a85858561108d565b99505b8a8a1015610787576040517f6a01e5e100000000000000000000000000000000000000000000000000000000815260040160405180910390fd5b61079388338e88611193565b8181111561085b578873ffffffffffffffffffffffffffffffffffffffff1663022c0d9f60008c30600067ffffffffffffffff8111156107d6576107d56118e9565b5b6040519080825280601f01601f1916602001820160405280156108085781602001600182028036833780820191505090505b506040518563ffffffff1660e01b815260040161082894939291906119c1565b600060405180830381600087803b15801561084257600080fd5b505af1158015610856573d6000803e3d6000fd5b505050505b8773ffffffffffffffffffffffffffffffffffffffff163373ffffffffffffffffffffffffffffffffffffffff167f30b60ee4dc75c0fb04420331b13e9ad7f8ff8fc51eac9c97d36fb20ccbe09d66878d6040516108ba929190611a0d565b60405180910390a35050505050505050503868929eee149b4bd212685592915050565b60008273ffffffffffffffffffffffffffffffffffffffff1682600067ffffffffffffffff811115610912576109116118e9565b5b6040519080825280601f01601f1916602001820160405280156109445781602001600182028036833780820191505090505b506040516109529190611a72565b60006040518083038185875af1925050503d806000811461098f576040519150601f19603f3d011682016040523d82523d6000602084013e610994565b606091505b50509050806109d8576040517f08c379a00000000000000000000000000000000000000000000000000000000081526004016109cf90611afb565b60405180910390fd5b505050565b6000808273ffffffffffffffffffffffffffffffffffffffff168473ffffffffffffffffffffffffffffffffffffffff1603610a4e576040517f08c379a0000000000000000000000000000000000000000000000000000000008152600401610a4590611b8d565b60405180910390fd5b8273ffffffffffffffffffffffffffffffffffffffff168473ffffffffffffffffffffffffffffffffffffffff1610610a88578284610a8b565b83835b8092508193505050600073ffffffffffffffffffffffffffffffffffffffff168273ffffffffffffffffffffffffffffffffffffffff1603610b02576040517f08c379a0000000000000000000000000000000000000000000000000000000008152600401610af990611bf9565b60405180910390fd5b9250929050565b60008060008373ffffffffffffffffffffffffffffffffffffffff166301ffc9a760e01b604051602401610b3d9190611c54565b6040516020818303038152906040527f01ffc9a7000000000000000000000000000000000000000000000000000000007bffffffffffffffffffffffffffffffffffffffffffffffffffffffff19166020820180517bffffffffffffffffffffffffffffffffffffffffffffffffffffffff8381831617835250505050604051610bc79190611a72565b600060405180830381855afa9150503d8060008114610c02576040519150601f19603f3d011682016040523d82523d6000602084013e610c07565b606091505b509150915081610c43576040517f7ad337de00000000000000000000000000000000000000000000000000000000815260040160405180910390fd5b80806020019051810190610c579190611ca7565b92505050919050565b600080610c82848473420000000000000000000000000000000000000661027d565b9050600073ffffffffffffffffffffffffffffffffffffffff168173ffffffffffffffffffffffffffffffffffffffff16141591505092915050565b60008060008473ffffffffffffffffffffffffffffffffffffffff1684604051602401610ceb91906115cb565b6040516020818303038152906040527f70a08231000000000000000000000000000000000000000000000000000000007bffffffffffffffffffffffffffffffffffffffffffffffffffffffff19166020820180517bffffffffffffffffffffffffffffffffffffffffffffffffffffffff8381831617835250505050604051610d759190611a72565b600060405180830381855afa9150503d8060008114610db0576040519150601f19603f3d011682016040523d82523d6000602084013e610db5565b606091505b509150915081610df1576040517f1973b83900000000000000000000000000000000000000000000000000000000815260040160405180910390fd5b80806020019051810190610e059190611d00565b9250505092915050565b60008060008473ffffffffffffffffffffffffffffffffffffffff166040516024016040516020818303038152906040527f313ce567000000000000000000000000000000000000000000000000000000007bffffffffffffffffffffffffffffffffffffffffffffffffffffffff19166020820180517bffffffffffffffffffffffffffffffffffffffffffffffffffffffff8381831617835250505050604051610ebb9190611a72565b600060405180830381855afa9150503d8060008114610ef6576040519150601f19603f3d011682016040523d82523d6000602084013e610efb565b606091505b509150915081610f37576040517fb21ddbf100000000000000000000000000000000000000000000000000000000815260040160405180910390fd5b600081806020019051810190610f4d9190611d00565b90506001816012610f5e9190611d2d565b600a610f6a9190611e94565b86610f759190611edf565b610f7f9190611f50565b935050505092915050565b6000806000610f9985856109dd565b509050600080610faa88888861027d565b73ffffffffffffffffffffffffffffffffffffffff16630902f1ac6040518163ffffffff1660e01b8152600401606060405180830381865afa158015610ff4573d6000803e3d6000fd5b505050506040513d601f19601f820116820180604052508101906110189190612003565b506dffffffffffffffffffffffffffff1691506dffffffffffffffffffffffffffff1691508273ffffffffffffffffffffffffffffffffffffffff168773ffffffffffffffffffffffffffffffffffffffff161461107757808261107a565b81815b8095508196505050505050935093915050565b60008084116110d1576040517f08c379a00000000000000000000000000000000000000000000000000000000081526004016110c8906120c8565b60405180910390fd5b6000831180156110e15750600082115b611120576040517f08c379a00000000000000000000000000000000000000000000000000000000081526004016111179061215a565b60405180910390fd5b60006111376103e5866112cc90919063ffffffff16565b9050600061114e84836112cc90919063ffffffff16565b905060006111798361116b6103e8896112cc90919063ffffffff16565b61133990919063ffffffff16565b905080826111879190611f50565b93505050509392505050565b6000808573ffffffffffffffffffffffffffffffffffffffff166323b872dd8686866040516024016111c79392919061217a565b6040516020818303038152906040529060e01b6020820180517bffffffffffffffffffffffffffffffffffffffffffffffffffffffff83818316178352505050506040516112159190611a72565b6000604051808303816000865af19150503d8060008114611252576040519150601f19603f3d011682016040523d82523d6000602084013e611257565b606091505b509150915081801561128557506000815114806112845750808060200190518101906112839190611ca7565b5b5b6112c4576040517f08c379a00000000000000000000000000000000000000000000000000000000081526004016112bb90612223565b60405180910390fd5b505050505050565b6000808214806112f45750828283856112e59190611edf565b9250826112f29190611f50565b145b611333576040517f08c379a000000000000000000000000000000000000000000000000000000000815260040161132a9061228f565b60405180910390fd5b92915050565b600082828461134891906116a7565b915081101561138c576040517f08c379a0000000000000000000000000000000000000000000000000000000008152600401611383906122fb565b60405180910390fd5b92915050565b600080fd5b600080fd5b600080fd5b600080fd5b600080fd5b60008083601f8401126113c1576113c061139c565b5b8235905067ffffffffffffffff8111156113de576113dd6113a1565b5b6020830191508360208202830111156113fa576113f96113a6565b5b9250929050565b60008083601f8401126114175761141661139c565b5b8235905067ffffffffffffffff811115611434576114336113a1565b5b6020830191508360208202830111156114505761144f6113a6565b5b9250929050565b6000806000806040858703121561147157611470611392565b5b600085013567ffffffffffffffff81111561148f5761148e611397565b5b61149b878288016113ab565b9450945050602085013567ffffffffffffffff8111156114be576114bd611397565b5b6114ca87828801611401565b925092505092959194509250565b600081519050919050565b600082825260208201905092915050565b60005b838110156115125780820151818401526020810190506114f7565b60008484015250505050565b6000601f19601f8301169050919050565b600061153a826114d8565b61154481856114e3565b93506115548185602086016114f4565b61155d8161151e565b840191505092915050565b60006020820190508181036000830152611582818461152f565b905092915050565b600073ffffffffffffffffffffffffffffffffffffffff82169050919050565b60006115b58261158a565b9050919050565b6115c5816115aa565b82525050565b60006020820190506115e060008301846115bc565b92915050565b7f4e487b7100000000000000000000000000000000000000000000000000000000600052603260045260246000fd5b61161e816115aa565b811461162957600080fd5b50565b60008135905061163b81611615565b92915050565b60006020828403121561165757611656611392565b5b60006116658482850161162c565b91505092915050565b6000819050919050565b7f4e487b7100000000000000000000000000000000000000000000000000000000600052601160045260246000fd5b60006116b28261166e565b91506116bd8361166e565b92508282019050808211156116d5576116d4611678565b5b92915050565b60006116e68261166e565b91507fffffffffffffffffffffffffffffffffffffffffffffffffffffffffffffffff820361171857611717611678565b5b600182019050919050565b60008160601b9050919050565b600061173b82611723565b9050919050565b600061174d82611730565b9050919050565b611765611760826115aa565b611742565b82525050565b60006117778285611754565b6014820191506117878284611754565b6014820191508190509392505050565b600081905092915050565b7fff00000000000000000000000000000000000000000000000000000000000000600082015250565b60006117d8600183611797565b91506117e3826117a2565b600182019050919050565b6000819050919050565b6000819050919050565b61181361180e826117ee565b6117f8565b82525050565b7f96e8ac4277198ff8b6f785478aa9a39f403cb768dd02cbee326c3e7da348845f600082015250565b600061184f602083611797565b915061185a82611819565b602082019050919050565b6000611870826117cb565b915061187c8285611754565b60148201915061188c8284611802565b60208201915061189b82611842565b91508190509392505050565b6000815190506118b681611615565b92915050565b6000602082840312156118d2576118d1611392565b5b60006118e0848285016118a7565b91505092915050565b7f4e487b7100000000000000000000000000000000000000000000000000000000600052604160045260246000fd5b6000819050919050565b6000819050919050565b600061194761194261193d84611918565b611922565b61166e565b9050919050565b6119578161192c565b82525050565b6119668161166e565b82525050565b600081519050919050565b600082825260208201905092915050565b60006119938261196c565b61199d8185611977565b93506119ad8185602086016114f4565b6119b68161151e565b840191505092915050565b60006080820190506119d6600083018761194e565b6119e3602083018661195d565b6119f060408301856115bc565b8181036060830152611a028184611988565b905095945050505050565b6000604082019050611a22600083018561195d565b611a2f602083018461195d565b9392505050565b600081905092915050565b6000611a4c8261196c565b611a568185611a36565b9350611a668185602086016114f4565b80840191505092915050565b6000611a7e8284611a41565b915081905092915050565b7f5472616e7366657248656c7065723a204554485f5452414e534645525f46414960008201527f4c45440000000000000000000000000000000000000000000000000000000000602082015250565b6000611ae56023836114e3565b9150611af082611a89565b604082019050919050565b60006020820190508181036000830152611b1481611ad8565b9050919050565b7f556e697377617056324c6962726172793a204944454e544943414c5f4144445260008201527f4553534553000000000000000000000000000000000000000000000000000000602082015250565b6000611b776025836114e3565b9150611b8282611b1b565b604082019050919050565b60006020820190508181036000830152611ba681611b6a565b9050919050565b7f556e697377617056324c6962726172793a205a45524f5f414444524553530000600082015250565b6000611be3601e836114e3565b9150611bee82611bad565b602082019050919050565b60006020820190508181036000830152611c1281611bd6565b9050919050565b60007fffffffff0000000000000000000000000000000000000000000000000000000082169050919050565b611c4e81611c19565b82525050565b6000602082019050611c696000830184611c45565b92915050565b60008115159050919050565b611c8481611c6f565b8114611c8f57600080fd5b50565b600081519050611ca181611c7b565b92915050565b600060208284031215611cbd57611cbc611392565b5b6000611ccb84828501611c92565b91505092915050565b611cdd8161166e565b8114611ce857600080fd5b50565b600081519050611cfa81611cd4565b92915050565b600060208284031215611d1657611d15611392565b5b6000611d2484828501611ceb565b91505092915050565b6000611d388261166e565b9150611d438361166e565b9250828203905081811115611d5b57611d5a611678565b5b92915050565b60008160011c9050919050565b6000808291508390505b6001851115611db857808604811115611d9457611d93611678565b5b6001851615611da35780820291505b8081029050611db185611d61565b9450611d78565b94509492505050565b600082611dd15760019050611e8d565b81611ddf5760009050611e8d565b8160018114611df55760028114611dff57611e2e565b6001915050611e8d565b60ff841115611e1157611e10611678565b5b8360020a915084821115611e2857611e27611678565b5b50611e8d565b5060208310610133831016604e8410600b8410161715611e635782820a905083811115611e5e57611e5d611678565b5b611e8d565b611e708484846001611d6e565b92509050818404811115611e8757611e86611678565b5b81810290505b9392505050565b6000611e9f8261166e565b9150611eaa8361166e565b9250611ed77fffffffffffffffffffffffffffffffffffffffffffffffffffffffffffffffff8484611dc1565b905092915050565b6000611eea8261166e565b9150611ef58361166e565b9250828202611f038161166e565b91508282048414831517611f1a57611f19611678565b5b5092915050565b7f4e487b7100000000000000000000000000000000000000000000000000000000600052601260045260246000fd5b6000611f5b8261166e565b9150611f668361166e565b925082611f7657611f75611f21565b5b828204905092915050565b60006dffffffffffffffffffffffffffff82169050919050565b611fa481611f81565b8114611faf57600080fd5b50565b600081519050611fc181611f9b565b92915050565b600063ffffffff82169050919050565b611fe081611fc7565b8114611feb57600080fd5b50565b600081519050611ffd81611fd7565b92915050565b60008060006060848603121561201c5761201b611392565b5b600061202a86828701611fb2565b935050602061203b86828701611fb2565b925050604061204c86828701611fee565b9150509250925092565b7f556e697377617056324c6962726172793a20494e53554646494349454e545f4960008201527f4e5055545f414d4f554e54000000000000000000000000000000000000000000602082015250565b60006120b2602b836114e3565b91506120bd82612056565b604082019050919050565b600060208201905081810360008301526120e1816120a5565b9050919050565b7f556e697377617056324c6962726172793a20494e53554646494349454e545f4c60008201527f4951554944495459000000000000000000000000000000000000000000000000602082015250565b60006121446028836114e3565b915061214f826120e8565b604082019050919050565b6000602082019050818103600083015261217381612137565b9050919050565b600060608201905061218f60008301866115bc565b61219c60208301856115bc565b6121a9604083018461195d565b949350505050565b7f5472616e7366657248656c7065723a205452414e534645525f46524f4d5f464160008201527f494c454400000000000000000000000000000000000000000000000000000000602082015250565b600061220d6024836114e3565b9150612218826121b1565b604082019050919050565b6000602082019050818103600083015261223c81612200565b9050919050565b7f64732d6d6174682d6d756c2d6f766572666c6f77000000000000000000000000600082015250565b60006122796014836114e3565b915061228482612243565b602082019050919050565b600060208201905081810360008301526122a88161226c565b9050919050565b7f64732d6d6174682d6164642d6f766572666c6f77000000000000000000000000600082015250565b60006122e56014836114e3565b91506122f0826122af565b602082019050919050565b60006020820190508181036000830152612314816122d8565b905091905056fea264697066735822122034ad709d42d47d6d964d00113bbcf4b8948cc9b9a00b65055f63158c6cb81d8064736f6c63430008140033",
  "devdoc": {
    "errors": {
      "Reentrancy()": [
        {
          "details": "Unauthorized reentrant call."
        }
      ]
    },
    "kind": "dev",
    "methods": {},
    "version": 1
  },
  "userdoc": {
    "kind": "user",
    "methods": {},
    "version": 1
  },
  "storageLayout": {
    "storage": [],
    "types": null
  }
}