{
  "address": "0x2Be3f47F734650423fc6Ba361860249A564C892b",
  "abi": [
    {
      "inputs": [],
      "stateMutability": "nonpayable",
      "type": "constructor"
    },
    {
      "inputs": [],
      "name": "AssetScooper_PairDoesNotExist",
      "type": "error"
    },
    {
      "inputs": [],
      "name": "AssetScooper__AddressZero",
      "type": "error"
    },
    {
      "inputs": [],
      "name": "AssetScooper__InsufficientBalance",
      "type": "error"
    },
    {
      "inputs": [],
      "name": "AssetScooper__InsufficientLiquidity",
      "type": "error"
    },
    {
      "inputs": [],
      "name": "AssetScooper__InsufficientOutputAmount",
      "type": "error"
    },
    {
      "inputs": [],
      "name": "AssetScooper__MisMatchLength",
      "type": "error"
    },
    {
      "inputs": [],
      "name": "AssetScooper__MisMatchToken",
      "type": "error"
    },
    {
      "inputs": [],
      "name": "AssetScooper__UnsuccessfulBalanceCall",
      "type": "error"
    },
    {
      "inputs": [],
      "name": "AssetScooper__UnsuccessfulDecimalCall",
      "type": "error"
    },
    {
      "inputs": [],
      "name": "AssetScooper__UnsuccessfulSwapTx",
      "type": "error"
    },
    {
      "inputs": [],
      "name": "AssetScooper__UnsupportedToken",
      "type": "error"
    },
    {
      "inputs": [],
      "name": "AssetScooper__ZeroLengthArray",
      "type": "error"
    },
    {
      "inputs": [],
      "name": "Reentrancy",
      "type": "error"
    },
    {
      "anonymous": false,
      "inputs": [
        {
          "indexed": true,
          "internalType": "address",
          "name": "tokenA",
          "type": "address"
        },
        {
          "indexed": true,
          "internalType": "address",
          "name": "tokenB",
          "type": "address"
        },
        {
          "indexed": false,
          "internalType": "uint256",
          "name": "amountIn",
          "type": "uint256"
        },
        {
          "indexed": false,
          "internalType": "uint256",
          "name": "amountOut",
          "type": "uint256"
        }
      ],
      "name": "TokenSwapped",
      "type": "event"
    },
    {
      "inputs": [],
      "name": "owner",
      "outputs": [
        {
          "internalType": "address",
          "name": "",
          "type": "address"
        }
      ],
      "stateMutability": "view",
      "type": "function"
    },
    {
      "inputs": [
        {
          "internalType": "address[]",
          "name": "tokenAddress",
          "type": "address[]"
        },
        {
          "internalType": "uint256[]",
          "name": "minAmountOut",
          "type": "uint256[]"
        }
      ],
      "name": "sweepTokens",
      "outputs": [],
      "stateMutability": "nonpayable",
      "type": "function"
    },
    {
      "inputs": [],
      "name": "version",
      "outputs": [
        {
          "internalType": "string",
          "name": "",
          "type": "string"
        }
      ],
      "stateMutability": "pure",
      "type": "function"
    }
  ],
  "transactionHash": "0x9aecf4f3014550d30d39e75f4abc414b4e0eb0e171b25eb853a4a6a9483136ac",
  "args": [],
  "numDeployments": 1,
  "solcInputHash": "d7ea544b13043da3cc8ee88173bd2785",
  "bytecode": "0x60a060405234801561001057600080fd5b503373ffffffffffffffffffffffffffffffffffffffff1660808173ffffffffffffffffffffffffffffffffffffffff16815250506080516123c261006060003960006102ca01526123c26000f3fe608060405234801561001057600080fd5b50600436106100415760003560e01c80630466ee071461004657806354fd4d50146100625780638da5cb5b14610080575b600080fd5b610060600480360381019061005b91906114c8565b61009e565b005b61006a610289565b60405161007791906115d9565b60405180910390f35b6100886102c6565b604051610095919061163c565b60405180910390f35b3068929eee149b4bd2126854036100bd5763ab143c066000526004601cfd5b3068929eee149b4bd212685560008484905003610106576040517f561c30c400000000000000000000000000000000000000000000000000000000815260040160405180910390fd5b600073ffffffffffffffffffffffffffffffffffffffff163373ffffffffffffffffffffffffffffffffffffffff160361016c576040517f74b44dbd00000000000000000000000000000000000000000000000000000000815260040160405180910390fd5b8181905084849050146101ab576040517feb0899cc00000000000000000000000000000000000000000000000000000000815260040160405180910390fd5b600080600080600090505b87879050811015610269578787828181106101d4576101d3611657565b5b90506020020160208101906101e991906116b2565b93508585828181106101fe576101fd611657565b5b905060200201359250600061023c738909dc15e40173ff4699343b6eb8132c65e18ec6867342000000000000000000000000000000000000066102ee565b90506102488185610360565b836102539190611718565b92505080806102619061174c565b9150506101b6565b50610274338261094e565b5050503868929eee149b4bd212685550505050565b60606040518060400160405280600581526020017f312e302e30000000000000000000000000000000000000000000000000000000815250905090565b60007f0000000000000000000000000000000000000000000000000000000000000000905090565b60008060006102fd8585610a4e565b915091508582826040516020016103159291906117dc565b6040516020818303038152906040528051906020012060405160200161033c9291906118d6565b6040516020818303038152906040528051906020012060001c925050509392505050565b60003068929eee149b4bd2126854036103815763ab143c066000526004601cfd5b3068929eee149b4bd2126855600083905060008173ffffffffffffffffffffffffffffffffffffffff16630dfe16816040518163ffffffff1660e01b8152600401602060405180830381865afa1580156103df573d6000803e3d6000fd5b505050506040513d601f19601f82011682018060405250810190610403919061192d565b905060008273ffffffffffffffffffffffffffffffffffffffff1663d21220a76040518163ffffffff1660e01b8152600401602060405180830381865afa158015610452573d6000803e3d6000fd5b505050506040513d601f19601f82011682018060405250810190610476919061192d565b9050600073ffffffffffffffffffffffffffffffffffffffff168273ffffffffffffffffffffffffffffffffffffffff161480156104e05750600073ffffffffffffffffffffffffffffffffffffffff168173ffffffffffffffffffffffffffffffffffffffff16145b15610517576040517f74b44dbd00000000000000000000000000000000000000000000000000000000815260040160405180910390fd5b73420000000000000000000000000000000000000673ffffffffffffffffffffffffffffffffffffffff168273ffffffffffffffffffffffffffffffffffffffff1614801561059157508173ffffffffffffffffffffffffffffffffffffffff168173ffffffffffffffffffffffffffffffffffffffff16145b156105c8576040517fd570b00d00000000000000000000000000000000000000000000000000000000815260040160405180910390fd5b6105d182610b7a565b610607576040517f7ad337de00000000000000000000000000000000000000000000000000000000815260040160405180910390fd5b61067f8373ffffffffffffffffffffffffffffffffffffffff1663c45a01556040518163ffffffff1660e01b8152600401602060405180830381865afa158015610655573d6000803e3d6000fd5b505050506040513d601f19601f82011682018060405250810190610679919061192d565b83610cd1565b6106b5576040517f1c074cc800000000000000000000000000000000000000000000000000000000815260040160405180910390fd5b60006106c18333610d2f565b905060008110156106fe576040517f26c67e3c00000000000000000000000000000000000000000000000000000000815260040160405180910390fd5b600061070a8483610e80565b90506000806107888773ffffffffffffffffffffffffffffffffffffffff1663c45a01556040518163ffffffff1660e01b8152600401602060405180830381865afa15801561075d573d6000803e3d6000fd5b505050506040513d601f19601f82011682018060405250810190610781919061192d565b8787610ffb565b915091506000610798878c610d2f565b905060006107a6878d610d2f565b9050818111156107be576107bb8585856110fe565b99505b8a8a10156107f8576040517f6a01e5e100000000000000000000000000000000000000000000000000000000815260040160405180910390fd5b61080488338e88611204565b818111156108cc578873ffffffffffffffffffffffffffffffffffffffff1663022c0d9f60008c30600067ffffffffffffffff8111156108475761084661195a565b5b6040519080825280601f01601f1916602001820160405280156108795781602001600182028036833780820191505090505b506040518563ffffffff1660e01b81526004016108999493929190611a32565b600060405180830381600087803b1580156108b357600080fd5b505af11580156108c7573d6000803e3d6000fd5b505050505b8673ffffffffffffffffffffffffffffffffffffffff168873ffffffffffffffffffffffffffffffffffffffff167f30b60ee4dc75c0fb04420331b13e9ad7f8ff8fc51eac9c97d36fb20ccbe09d66878d60405161092b929190611a7e565b60405180910390a35050505050505050503868929eee149b4bd212685592915050565b60008273ffffffffffffffffffffffffffffffffffffffff1682600067ffffffffffffffff8111156109835761098261195a565b5b6040519080825280601f01601f1916602001820160405280156109b55781602001600182028036833780820191505090505b506040516109c39190611ae3565b60006040518083038185875af1925050503d8060008114610a00576040519150601f19603f3d011682016040523d82523d6000602084013e610a05565b606091505b5050905080610a49576040517f08c379a0000000000000000000000000000000000000000000000000000000008152600401610a4090611b6c565b60405180910390fd5b505050565b6000808273ffffffffffffffffffffffffffffffffffffffff168473ffffffffffffffffffffffffffffffffffffffff1603610abf576040517f08c379a0000000000000000000000000000000000000000000000000000000008152600401610ab690611bfe565b60405180910390fd5b8273ffffffffffffffffffffffffffffffffffffffff168473ffffffffffffffffffffffffffffffffffffffff1610610af9578284610afc565b83835b8092508193505050600073ffffffffffffffffffffffffffffffffffffffff168273ffffffffffffffffffffffffffffffffffffffff1603610b73576040517f08c379a0000000000000000000000000000000000000000000000000000000008152600401610b6a90611c6a565b60405180910390fd5b9250929050565b60008060008373ffffffffffffffffffffffffffffffffffffffff166301ffc9a760e01b604051602401610bae9190611cc5565b6040516020818303038152906040527f01ffc9a7000000000000000000000000000000000000000000000000000000007bffffffffffffffffffffffffffffffffffffffffffffffffffffffff19166020820180517bffffffffffffffffffffffffffffffffffffffffffffffffffffffff8381831617835250505050604051610c389190611ae3565b600060405180830381855afa9150503d8060008114610c73576040519150601f19603f3d011682016040523d82523d6000602084013e610c78565b606091505b509150915081610cb4576040517f7ad337de00000000000000000000000000000000000000000000000000000000815260040160405180910390fd5b80806020019051810190610cc89190611d18565b92505050919050565b600080610cf384847342000000000000000000000000000000000000066102ee565b9050600073ffffffffffffffffffffffffffffffffffffffff168173ffffffffffffffffffffffffffffffffffffffff16141591505092915050565b60008060008473ffffffffffffffffffffffffffffffffffffffff1684604051602401610d5c919061163c565b6040516020818303038152906040527f70a08231000000000000000000000000000000000000000000000000000000007bffffffffffffffffffffffffffffffffffffffffffffffffffffffff19166020820180517bffffffffffffffffffffffffffffffffffffffffffffffffffffffff8381831617835250505050604051610de69190611ae3565b600060405180830381855afa9150503d8060008114610e21576040519150601f19603f3d011682016040523d82523d6000602084013e610e26565b606091505b509150915081610e62576040517f1973b83900000000000000000000000000000000000000000000000000000000815260040160405180910390fd5b80806020019051810190610e769190611d71565b9250505092915050565b60008060008473ffffffffffffffffffffffffffffffffffffffff166040516024016040516020818303038152906040527f313ce567000000000000000000000000000000000000000000000000000000007bffffffffffffffffffffffffffffffffffffffffffffffffffffffff19166020820180517bffffffffffffffffffffffffffffffffffffffffffffffffffffffff8381831617835250505050604051610f2c9190611ae3565b600060405180830381855afa9150503d8060008114610f67576040519150601f19603f3d011682016040523d82523d6000602084013e610f6c565b606091505b509150915081610fa8576040517fb21ddbf100000000000000000000000000000000000000000000000000000000815260040160405180910390fd5b600081806020019051810190610fbe9190611d71565b90506001816012610fcf9190611d9e565b600a610fdb9190611f05565b86610fe69190611f50565b610ff09190611fc1565b935050505092915050565b600080600061100a8585610a4e565b50905060008061101b8888886102ee565b73ffffffffffffffffffffffffffffffffffffffff16630902f1ac6040518163ffffffff1660e01b8152600401606060405180830381865afa158015611065573d6000803e3d6000fd5b505050506040513d601f19601f820116820180604052508101906110899190612074565b506dffffffffffffffffffffffffffff1691506dffffffffffffffffffffffffffff1691508273ffffffffffffffffffffffffffffffffffffffff168773ffffffffffffffffffffffffffffffffffffffff16146110e85780826110eb565b81815b8095508196505050505050935093915050565b6000808411611142576040517f08c379a000000000000000000000000000000000000000000000000000000000815260040161113990612139565b60405180910390fd5b6000831180156111525750600082115b611191576040517f08c379a0000000000000000000000000000000000000000000000000000000008152600401611188906121cb565b60405180910390fd5b60006111a86103e58661133d90919063ffffffff16565b905060006111bf848361133d90919063ffffffff16565b905060006111ea836111dc6103e88961133d90919063ffffffff16565b6113aa90919063ffffffff16565b905080826111f89190611fc1565b93505050509392505050565b6000808573ffffffffffffffffffffffffffffffffffffffff166323b872dd868686604051602401611238939291906121eb565b6040516020818303038152906040529060e01b6020820180517bffffffffffffffffffffffffffffffffffffffffffffffffffffffff83818316178352505050506040516112869190611ae3565b6000604051808303816000865af19150503d80600081146112c3576040519150601f19603f3d011682016040523d82523d6000602084013e6112c8565b606091505b50915091508180156112f657506000815114806112f55750808060200190518101906112f49190611d18565b5b5b611335576040517f08c379a000000000000000000000000000000000000000000000000000000000815260040161132c90612294565b60405180910390fd5b505050505050565b6000808214806113655750828283856113569190611f50565b9250826113639190611fc1565b145b6113a4576040517f08c379a000000000000000000000000000000000000000000000000000000000815260040161139b90612300565b60405180910390fd5b92915050565b60008282846113b99190611718565b91508110156113fd576040517f08c379a00000000000000000000000000000000000000000000000000000000081526004016113f49061236c565b60405180910390fd5b92915050565b600080fd5b600080fd5b600080fd5b600080fd5b600080fd5b60008083601f8401126114325761143161140d565b5b8235905067ffffffffffffffff81111561144f5761144e611412565b5b60208301915083602082028301111561146b5761146a611417565b5b9250929050565b60008083601f8401126114885761148761140d565b5b8235905067ffffffffffffffff8111156114a5576114a4611412565b5b6020830191508360208202830111156114c1576114c0611417565b5b9250929050565b600080600080604085870312156114e2576114e1611403565b5b600085013567ffffffffffffffff811115611500576114ff611408565b5b61150c8782880161141c565b9450945050602085013567ffffffffffffffff81111561152f5761152e611408565b5b61153b87828801611472565b925092505092959194509250565b600081519050919050565b600082825260208201905092915050565b60005b83811015611583578082015181840152602081019050611568565b60008484015250505050565b6000601f19601f8301169050919050565b60006115ab82611549565b6115b58185611554565b93506115c5818560208601611565565b6115ce8161158f565b840191505092915050565b600060208201905081810360008301526115f381846115a0565b905092915050565b600073ffffffffffffffffffffffffffffffffffffffff82169050919050565b6000611626826115fb565b9050919050565b6116368161161b565b82525050565b6000602082019050611651600083018461162d565b92915050565b7f4e487b7100000000000000000000000000000000000000000000000000000000600052603260045260246000fd5b61168f8161161b565b811461169a57600080fd5b50565b6000813590506116ac81611686565b92915050565b6000602082840312156116c8576116c7611403565b5b60006116d68482850161169d565b91505092915050565b6000819050919050565b7f4e487b7100000000000000000000000000000000000000000000000000000000600052601160045260246000fd5b6000611723826116df565b915061172e836116df565b9250828201905080821115611746576117456116e9565b5b92915050565b6000611757826116df565b91507fffffffffffffffffffffffffffffffffffffffffffffffffffffffffffffffff8203611789576117886116e9565b5b600182019050919050565b60008160601b9050919050565b60006117ac82611794565b9050919050565b60006117be826117a1565b9050919050565b6117d66117d18261161b565b6117b3565b82525050565b60006117e882856117c5565b6014820191506117f882846117c5565b6014820191508190509392505050565b600081905092915050565b7fff00000000000000000000000000000000000000000000000000000000000000600082015250565b6000611849600183611808565b915061185482611813565b600182019050919050565b6000819050919050565b6000819050919050565b61188461187f8261185f565b611869565b82525050565b7f96e8ac4277198ff8b6f785478aa9a39f403cb768dd02cbee326c3e7da348845f600082015250565b60006118c0602083611808565b91506118cb8261188a565b602082019050919050565b60006118e18261183c565b91506118ed82856117c5565b6014820191506118fd8284611873565b60208201915061190c826118b3565b91508190509392505050565b60008151905061192781611686565b92915050565b60006020828403121561194357611942611403565b5b600061195184828501611918565b91505092915050565b7f4e487b7100000000000000000000000000000000000000000000000000000000600052604160045260246000fd5b6000819050919050565b6000819050919050565b60006119b86119b36119ae84611989565b611993565b6116df565b9050919050565b6119c88161199d565b82525050565b6119d7816116df565b82525050565b600081519050919050565b600082825260208201905092915050565b6000611a04826119dd565b611a0e81856119e8565b9350611a1e818560208601611565565b611a278161158f565b840191505092915050565b6000608082019050611a4760008301876119bf565b611a5460208301866119ce565b611a61604083018561162d565b8181036060830152611a7381846119f9565b905095945050505050565b6000604082019050611a9360008301856119ce565b611aa060208301846119ce565b9392505050565b600081905092915050565b6000611abd826119dd565b611ac78185611aa7565b9350611ad7818560208601611565565b80840191505092915050565b6000611aef8284611ab2565b915081905092915050565b7f5472616e7366657248656c7065723a204554485f5452414e534645525f46414960008201527f4c45440000000000000000000000000000000000000000000000000000000000602082015250565b6000611b56602383611554565b9150611b6182611afa565b604082019050919050565b60006020820190508181036000830152611b8581611b49565b9050919050565b7f556e697377617056324c6962726172793a204944454e544943414c5f4144445260008201527f4553534553000000000000000000000000000000000000000000000000000000602082015250565b6000611be8602583611554565b9150611bf382611b8c565b604082019050919050565b60006020820190508181036000830152611c1781611bdb565b9050919050565b7f556e697377617056324c6962726172793a205a45524f5f414444524553530000600082015250565b6000611c54601e83611554565b9150611c5f82611c1e565b602082019050919050565b60006020820190508181036000830152611c8381611c47565b9050919050565b60007fffffffff0000000000000000000000000000000000000000000000000000000082169050919050565b611cbf81611c8a565b82525050565b6000602082019050611cda6000830184611cb6565b92915050565b60008115159050919050565b611cf581611ce0565b8114611d0057600080fd5b50565b600081519050611d1281611cec565b92915050565b600060208284031215611d2e57611d2d611403565b5b6000611d3c84828501611d03565b91505092915050565b611d4e816116df565b8114611d5957600080fd5b50565b600081519050611d6b81611d45565b92915050565b600060208284031215611d8757611d86611403565b5b6000611d9584828501611d5c565b91505092915050565b6000611da9826116df565b9150611db4836116df565b9250828203905081811115611dcc57611dcb6116e9565b5b92915050565b60008160011c9050919050565b6000808291508390505b6001851115611e2957808604811115611e0557611e046116e9565b5b6001851615611e145780820291505b8081029050611e2285611dd2565b9450611de9565b94509492505050565b600082611e425760019050611efe565b81611e505760009050611efe565b8160018114611e665760028114611e7057611e9f565b6001915050611efe565b60ff841115611e8257611e816116e9565b5b8360020a915084821115611e9957611e986116e9565b5b50611efe565b5060208310610133831016604e8410600b8410161715611ed45782820a905083811115611ecf57611ece6116e9565b5b611efe565b611ee18484846001611ddf565b92509050818404811115611ef857611ef76116e9565b5b81810290505b9392505050565b6000611f10826116df565b9150611f1b836116df565b9250611f487fffffffffffffffffffffffffffffffffffffffffffffffffffffffffffffffff8484611e32565b905092915050565b6000611f5b826116df565b9150611f66836116df565b9250828202611f74816116df565b91508282048414831517611f8b57611f8a6116e9565b5b5092915050565b7f4e487b7100000000000000000000000000000000000000000000000000000000600052601260045260246000fd5b6000611fcc826116df565b9150611fd7836116df565b925082611fe757611fe6611f92565b5b828204905092915050565b60006dffffffffffffffffffffffffffff82169050919050565b61201581611ff2565b811461202057600080fd5b50565b6000815190506120328161200c565b92915050565b600063ffffffff82169050919050565b61205181612038565b811461205c57600080fd5b50565b60008151905061206e81612048565b92915050565b60008060006060848603121561208d5761208c611403565b5b600061209b86828701612023565b93505060206120ac86828701612023565b92505060406120bd8682870161205f565b9150509250925092565b7f556e697377617056324c6962726172793a20494e53554646494349454e545f4960008201527f4e5055545f414d4f554e54000000000000000000000000000000000000000000602082015250565b6000612123602b83611554565b915061212e826120c7565b604082019050919050565b6000602082019050818103600083015261215281612116565b9050919050565b7f556e697377617056324c6962726172793a20494e53554646494349454e545f4c60008201527f4951554944495459000000000000000000000000000000000000000000000000602082015250565b60006121b5602883611554565b91506121c082612159565b604082019050919050565b600060208201905081810360008301526121e4816121a8565b9050919050565b6000606082019050612200600083018661162d565b61220d602083018561162d565b61221a60408301846119ce565b949350505050565b7f5472616e7366657248656c7065723a205452414e534645525f46524f4d5f464160008201527f494c454400000000000000000000000000000000000000000000000000000000602082015250565b600061227e602483611554565b915061228982612222565b604082019050919050565b600060208201905081810360008301526122ad81612271565b9050919050565b7f64732d6d6174682d6d756c2d6f766572666c6f77000000000000000000000000600082015250565b60006122ea601483611554565b91506122f5826122b4565b602082019050919050565b60006020820190508181036000830152612319816122dd565b9050919050565b7f64732d6d6174682d6164642d6f766572666c6f77000000000000000000000000600082015250565b6000612356601483611554565b915061236182612320565b602082019050919050565b6000602082019050818103600083015261238581612349565b905091905056fea26469706673582212209935afab71b9f211b287d950f5557e20dfd3ae748a13620ad4e9b84bc8040c3864736f6c63430008140033",
  "devdoc": {
    "errors": {
      "Reentrancy()": [
        {
          "details": "Unauthorized reentrant call."
        }
      ]
    },
    "kind": "dev",
    "methods": {},
    "version": 1
  },
  "userdoc": {
    "kind": "user",
    "methods": {},
    "version": 1
  },
  "storageLayout": {
    "storage": [],
    "types": null
  }
}